:100000009BC00000B5C00000B3C00000B1C000003C
:10001000AFC00000ADC00000ABC00000A9C0000030
:10002000A7C00000A5C00000AAC6000074C7000059
:100030009FC000009DC000009BC0000099C0000050
:1000400097C0000095C0000093C0000091C0000060
:100050008FC0000009C300008BC0000089C00000F1
:1000600087C0000085C0000083C0000081C0000080
:100070007FC000007DC000007BC0000079C0000090
:1000800077C0000075C0000073C0000071C00000A0
:100090006FC000006DC000006BC0000069C00000B0
:1000A00067C0000065C0000063C000001C034C0076
:1000B000550046004100200043004400430020005A
:1000C000440065006D006F000000180344006500E7
:1000D00061006E002000430061006D006500720049
:1000E000610000000403090409023E00020100C08F
:1000F000320904000001020201000524001001047D
:100100002402060524060001070582030800FF09F2
:10011000040100020A0000000705040210000507A0
:100120000583021000051201100102000008EB0314
:10013000442001000102DC0111241FBECFEFDAE0F0
:10014000DEBFCDBF11E0A0E0B1E0ECEFF5E102C011
:1001500005900D92A834B107D9F723E0A8E4B1E0E7
:1001600001C01D92AE38B207E1F72ED10C94FC0A03
:1001700047CF5F98579A76986E9A089584988C9A8C
:1001800085988D9A87988F9A25982D9A24982C9ADD
:1001900008955C98549A46983E9A0895811109C032
:1001A000469A8FE39CE90197F1F700C0000046985A
:1001B0000895813041F45C9A8FE39CE90197F1F74F
:1001C00000C000005C9808955998519A08958111D3
:1001D00002C059980895599A0895269AE0E8F0E0E7
:1001E000808181628083E1E8F0E0808189608083A2
:1001F0000895F89489EF87BD82E084BD81E085BDD4
:1002000078940895F89416BCEEE6F0E08081826060
:10021000808378940895CF93DF9300D000D000D0EE
:10022000CDB7DEB794E0899F900111243E832D83E2
:10023000F901E85EFE4F80819181A281B3818983BB
:100240009A83AB83BC83BC01CD0119D3AD81BE8140
:10025000A85FBE4F8D919D910D90BC91A02D809374
:10026000690190936A01A0936B01B0936C0126968B
:100270000FB6F894DEBF0FBECDBFDF91CF910895CA
:100280000895089589E291E0FEC789E291E00C9417
:10029000500A0895982F80ED890F8A3070F08FE909
:1002A000890F863018F489EA890F08958FEB890F3A
:1002B000863010F489ECF8CF80E008950F931F93F7
:1002C000CF938C01FC018081E5DFC82FF80181818B
:1002D000E1DFC295C07F8C0FCF911F910F910895E0
:1002E000CF92DF92EF92FF920F931F93CF93DF9302
:1002F00000D000D000D0CDB7DEB78D839E830D81B6
:100300001E81085F1F4F19821A821B821C8229815D
:100310003A814B815C81CC24D22EE32EF42E8D8148
:100320009E81CCDFA7019601280F311D411D511D73
:1003300029833A834B835C834D815E814E5F5F4F9F
:100340005E834D834017510711F769817A818B8154
:100350009C8126960FB6F894DEBF0FBECDBFDF910D
:10036000CF911F910F91FF90EF90DF90CF90089564
:10037000CF93DF9300D00F92CDB7DEB7982F929531
:100380009F70803AA0F4905D99838F708A3088F4D2
:10039000805D8A831B82BE016F5F7F4F89E291E09F
:1003A00097D70F900F900F90DF91CF910895995CA0
:1003B000EBCF895CEECF66E471E089E291E088C71B
:1003C000BC0189E291E084C71092D80073D205DFA6
:1003D000D5DECFDEDEDE80E01EDFCBDEF5DE09DF40
:1003E00084B7877F84BF0FB6F894A895809160008A
:1003F000886180936000109260000FBE80E890E0FA
:100400000FB6F89480936100909361000FBE9AD468
:100410006BE571E089E291E00E943C0A7894F2DE9B
:100420005F9A2FEF39E648E1215030404040E1F734
:1004300000C000005F9880E0B1DE00E010E8C0EA94
:10044000DFE0FF24F39489E291E0DDD79C011816E8
:1004500019068CF580915301909154012A30310591
:1004600021F02D30310509F0E2C0009701F18359E8
:100470009E4FFC01108280916D01823509F094C07D
:100480008EE691E02DDF3B016C0186E791E028DFED
:100490004B015C01B301C601F2D1412C512C320158
:1004A000481459046A047B0409F076C084DF109272
:1004B00054011092530189E291E08DD7CAD6809100
:1004C0004E0190914F01892BF1F47C99C5C0D090D9
:1004D0004B01D11018C080914901D0934F01C093B6
:1004E0004E01F0924B01809149018111AFC05F9A9A
:1004F00081E054DE81E06BDE809159018CDEDD24E9
:10050000D394D092490180914C0190914D01892B57
:10051000C9F47D99A4C080914A01811113C0D09380
:100520004D01C0934C01F0924A01809159018F5FB7
:100530008093590190912801891302C010925901AA
:1005400010925A0180915001882309F47CCF1092B7
:100550005001E0915901F0E0EE0FFF1FE050FF4F16
:1005600080915A01980102C0369527958A95E2F745
:10057000C9012081318182239323892B09F472C020
:10058000769A80915A018F5F80935A018C3008F4DB
:100590005ACF10925A0157CF20D1EADEFFEF4F1AFF
:1005A0005F0A6F0A7F0A7CCF873541F58EE691E0BE
:1005B00097DE4B016C0186E791E092DE5B01B401AE
:1005C000C60139D18DE691E06501B12CA12C4C0119
:1005D00032E0830E911CCA14DB0441F44DD142D1A8
:1005E0008111FDCF84E491E0EBDE61CF419666DEC0
:1005F00038D12FEFA21AB20AC401E9CF853441F4F1
:100600008EE691E06DDEFED02DD18111FDCFEACFD7
:10061000833709F04CCFD12CC12C8C2DA9DE4FEFA4
:10062000C41AD40AC11481E0D806B9F73FCF823189
:10063000E2E09E0708F03FCFFC01E359FE4F208324
:100640000196909354018093530135CF80E0A6DD4D
:1006500080E0BDDD5F9855CF10924B0154CF1092D2
:100660004A0170CF76988DCF1F920F920FB60F92DE
:1006700011242F933F934F935F936F937F938F93A7
:100680009F93AF93BF93CF93EF93FF9380915101CB
:1006900090915201892B09F46EC080915101909183
:1006A000520101979093520180935101809148012A
:1006B000813009F08CC0C09149018091490181309D
:1006C00009F063C08AD090E090938B0080938A00F9
:1006D0008091690190916A01A0916B01B0916C01C8
:1006E000892B8A2B8B2B99F48091590194DD80EC16
:1006F00094EDA1E0B0E08093550190935601A09352
:100700005701B093580180E062DD5F98C2E0C0936A
:10071000490180914E0190914F01892B49F08091C0
:100720004E0190914F01019790934F0180934E019C
:1007300080914C0190914D01892B49F080914C01A1
:1007400090914D01019790934D0180934C0110922F
:100750004801FF91EF91CF91BF91AF919F918F9100
:100760007F916F915F914F913F912F910F900FBEAD
:100770000F901F90189580E090E290935201809323
:10078000510181E08093500191CF809149018230E5
:1007900009F0BDCF8091550190915601A09157016C
:1007A000B09158010197A109B10980935501909327
:1007B0005601A0935701B0935801892B8A2B8B2B9C
:1007C00009F0A5CF81E003DD5F9AC1E0A0CF809161
:1007D00048018F5F80934801BCCF8091690190915F
:1007E0006A01A0916B01B0916C010197A109B10957
:1007F0008093690190936A01A0936B01B0936C019F
:100800008FEF5FC01F93CF93DF93EB01182F589AA0
:10081000589886E056D0589A589888ED52D0812F33
:1008200050D08D2F4ED08C2F4CD0589A5898DF91A5
:10083000CF911F9108951F93CF93DF93EB01182F52
:10084000589A589886E03DD0589A589882E039D006
:10085000812F37D08D2F35D08C2FDF91CF911F91E5
:1008600030C02FC0589A589885E02BD08FEF29D0F0
:10087000589A589881700895589A589808951F93D7
:10088000CF93DF93EB01182F589A589883E019D033
:10089000812F17D08D2F15D08C2F13D01092690176
:1008A00010926A0110926B0110926C01DF91CF914E
:1008B0001F910895589A86E084B981E08AB9299AEF
:1008C000089598E087FF09C02A9A2998880F1B99F4
:1008D0008160299A9150B1F708952A98F6CF9C012A
:1008E000DA01832F99278230910529F18330910510
:1008F00049F0019791F482E190E026E231E02D93F6
:100900003C930895C9019927213061F08230910507
:1009100079F0E4EEF0E0892B39F090E080E030E00F
:1009200020E0EDCFEAECF0E0849190E09F01E7CF8A
:10093000ECEAF0E0F9CF8EE390E028EE30E0DFCF94
:10094000AF92BF92CF92DF92FF920F931F93CF93FC
:10095000DF936C01EB018A0184D1F82E811123C051
:100960000115110539F0F80180819181C81BD90B5F
:10097000C80ED91EB12CA12C2097A9F08091E800B7
:1009800085FD21C08091E8008E778093E8000115F5
:100990001105A1F0F80180819181A80EB91EB182E4
:1009A000A08285E0F82E8F2DDF91CF911F910F91BE
:1009B000FF90DF90CF90BF90AF90089552D18823E1
:1009C000D9F2F82EF0CFF60181916F018093F100FA
:1009D0002197FFEFAF1ABF0ACFCFFC01CB012091C7
:1009E0008C0330918D032617370790F0009729F478
:1009F0002091E8002E772093E80040E0009751F422
:100A0000411108C08091E80082FF31C080E0089564
:100A1000C901F3CF209185032223A9F12530A9F143
:100A20002091E80023FD2DC02091E80022FDEACFAF
:100A30002091E80020FFE2CF3091F3002091F200F6
:100A4000009719F02830310558F041E02830310581
:100A500009F040E02091E8002E772093E800CECF07
:100A600041914093F10001972F5F3F4FE9CF809173
:100A70008503882341F0853041F08091E80083FFB1
:100A8000C1CF81E0089582E0089583E00895FC01DC
:100A9000CB0120918C0330918D032617370790F0FE
:100AA000009729F42091E8002E772093E80040E099
:100AB000009751F4411108C08091E80082FF32C0D4
:100AC00080E00895C901F3CF209185032223B1F17D
:100AD0002530B1F12091E80023FD2EC02091E800DF
:100AE00022FDEACF2091E80020FFE2CF3091F30011
:100AF0002091F200009719F02830310558F041E0BC
:100B00002830310509F040E02091E8002E7720934D
:100B1000E800CECF44914093F100319601972F5FCA
:100B20003F4FE8CF80918503882341F0853041F025
:100B30008091E80083FFC0CF81E0089582E00895AE
:100B400083E00895982F973028F08F708093E90004
:100B500081E008959093E900242F762F50E09817B4
:100B600031F07091EC002091ED005091F00021FDEA
:100B700002C09F5FE8CF3091EB003E7F3093EB00E7
:100B80003091ED003D7F3093ED003091EB0031600E
:100B90003093EB007093EC002093ED005093F00045
:100BA0002091EE0027FDE5CF80E008950F931F937D
:100BB000CF93DF93162FEC0100E0011302C081E018
:100BC0000BC09881911103C00F5F2596F6CF892F36
:100BD0008F70873030F080E0DF91CF911F910F91BF
:100BE00008952C8142E0223008F046E0E981FA8144
:100BF00068E070E020E06E177F0780F02295207F8C
:100C0000422B6B8120E4629FB0011124991F992728
:100C1000991F692B97DF8111D7CFDDCF2F5F660F2B
:100C2000771FE9CF8091860387FF13C08091E8008A
:100C300082FF06C08091E8008B778093E80004C0B3
:100C4000809185038111F2CF0895809185038823D7
:100C5000D9F38091E80080FFF8CF8091E8008E778B
:100C6000ECCF2091E4003091E50095E6A9012091B8
:100C7000EC00822F817020FF06C08091E80080FF89
:100C800006C080E008952091E80022FD1AC08091FE
:100C90008503882389F0853089F08091EB0085FDFC
:100CA0000FC02091E4003091E50042175307F9F29C
:100CB0009150E1F684E0089582E0089583E008957C
:100CC00081E008950F931F93CF93DF934BD052D0C1
:100CD000C8EDD0E088818F77888388818068888399
:100CE00088818F7D888319BC1092850310928103BF
:100CF000109283031092820300EE10E0F8018081CD
:100D00008B7F808388818160888342E060E080E01F
:100D100019DFE1EEF0E080818E7F8083E2EEF0E08B
:100D2000808181608083808188608083F8018081F8
:100D30008E7F8083888180618883DF91CF911F912E
:100D40000F910895E8EDF0E080818F7E8083E7EDDC
:100D5000F0E080818160808384E082BF81E08093C5
:100D60008403B0CFE8EDF0E080818E7F8083109225
:100D7000E20008951092DA001092E10008951F92A7
:100D80000F920FB60F9211242F933F934F935F93BF
:100D90006F937F938F939F93AF93BF93EF93FF9343
:100DA0008091E10082FF0AC08091E20082FF06C0CC
:100DB0008091E1008B7F8093E1004AD28091DA003C
:100DC00080FF18C08091D80080FF14C08091DA00A5
:100DD0008E7F8093DA008091D90080FF8FC080E100
:100DE00089BD82E189BD09B400FEFDCF81E0809319
:100DF000850346DA8091E10080FF18C08091E2000F
:100E000080FF14C08091E2008E7F8093E200809189
:100E1000E20080618093E2008091D800806280933C
:100E2000D80019BC85E08093850312D28091E1003F
:100E300084FF28C08091E20084FF24C080E189BD46
:100E400082E189BD09B400FEFDCF8091D8008F7D7D
:100E50008093D8008091E1008F7E8093E1008091A3
:100E6000E2008F7E8093E2008091E20081608093B7
:100E7000E20080918103882309F445C084E08093D7
:100E80008503E6D18091E10083FF27C08091E200D5
:100E900083FF23C08091E100877F8093E10082E09F
:100EA00080938503109281038091E1008E7F80936F
:100EB000E1008091E2008E7F8093E2008091E20069
:100EC00080618093E20042E060E080E03BDE809160
:100ED000F00088608093F000BBD1FF91EF91BF914B
:100EE000AF919F918F917F916F915F914F913F91C2
:100EF0002F910F900FBE0F901F90189519BC109254
:100F00008503BFD977CF8091E30087FD02C081E0E0
:100F1000B6CF83E0B4CF1F920F920FB60F92112479
:100F20002F933F934F935F936F937F938F939F93F1
:100F3000AF93BF93CF93DF93EF93FF93D091E900EB
:100F4000DF708091EC00C82FC17080FDC0E8109266
:100F5000E9008091F000877F8093F00078941ED0A4
:100F60001092E9008091F00088608093F000CD2B12
:100F7000CF70C093E900FF91EF91DF91CF91BF91C6
:100F8000AF919F918F917F916F915F914F913F9121
:100F90002F910F900FBE0F901F9018951F93CF9316
:100FA000DF93CDB7DEB7AA970FB6F894DEBF0FBEBA
:100FB000CDBF86E893E0FC0101962091F1002083EB
:100FC00023E08E389207B9F760D98091E80083FF5B
:100FD00010C08091860390918703953009F4C2C0B8
:100FE00000F5292F2D7F213009F489C0992309F4B8
:100FF0005EC08091E80083FF0AC08091E800877F8F
:101000008093E8008091EB0080628093EB00AA96C9
:101010000FB6F894DEBF0FBECDBFDF91CF911F9109
:101020000895983009F4D5C0993009F4DFC096309E
:1010300001F780588230E8F6809188039091890307
:101040008C3D23E0920709F0AFC083E08A838AE2F7
:1010500089834FB7F894DE01139620E03EE051E219
:10106000E32FF0E050935700E49120FF03C0E29596
:10107000EF703F5FEF708E2F90E0EA3008F492C07F
:10108000C7968D939D932F5F243151F74FBF809169
:10109000E800877F8093E8006AE270E0CE01019665
:1010A0009CDC8091E8008B778093E800A2CF8038A9
:1010B00099F0823809F09DCF80918A038F70873034
:1010C00008F097CF8093E9008091EB0085FB88279B
:1010D00080F91092E90006C0809182039091830309
:1010E000911182609091E800977F9093E80080933F
:1010F000F1001092F1008091E8008E77A5C088235E
:1011000009F492C0823009F074CF80918803811174
:1011100096C080918A038F702FEF280F263008F039
:1011200068CF8093E9002091EB0020FF88C09330C6
:1011300031F48091EB0080628093EB0080C090914D
:10114000EB0090619093EB0021E030E001C0220FB2
:101150008A95EAF72093EA001092EA008091EB006A
:101160008860EACF811145CF109188031F77809165
:10117000E3008078812B8093E3008091E800877FF3
:101180008093E8004FDD8091E80080FFFCCF8091E4
:10119000E30080688093E30082E0111183E0809394
:1011A000850327CFC0966DCF60918A0370918B0322
:1011B000AE014F5F5F4F93DBBC01892B09F419CF60
:1011C0008091E800877F8093E80089819A815FDCC5
:1011D00068CF803809F00DCF8091E800877F809339
:1011E000E800809181038093F10085CF811101CFC8
:1011F00090918803923008F0FCCE8091E800877FC0
:101200008093E800909381030DDD80918103882312
:1012100011F084E005C08091E30087FDFACF81E002
:10122000809385032FD8E5CE80918803813009F023
:10123000E0CE81E0933009F080E080938303109248
:10124000E9008091E800877F8093E800EBDCD1CE55
:101250000895CF9380918503882399F0C091E90088
:10126000CF709091EC00892F817090FD80E8C82BA1
:101270001092E9008091E80083FD90DECF70C0936A
:10128000E900CF910895CF93DF93EC01FC017096B4
:101290008BE0DF011D928A95E9F782E08C838987D4
:1012A00083E08E8761E0CE01019680DC882361F0C7
:1012B00061E0CE0106967ADC882331F061E0CE0150
:1012C0000B96DF91CF9172CC80E0DF91CF910895A2
:1012D000FC01CB01209185032430B9F44489558960
:1012E00066897789452B462B472B79F021812F7012
:1012F0002093E900FC0101900020E9F73197BF013C
:10130000681B790B50E040E01BCB82E00895CF933F
:10131000FC01C62F809185038430F1F4848995897E
:10132000A689B789892B8A2B8B2BB1F081818F708D
:101330008093E9008091E80085FF05C0C093F1002B
:1013400080E0CF9108958091E8008E778093E80047
:1013500088DC882399F3F5CF82E0F3CFFB01682F77
:1013600084859585D4DF21E030E0811102C030E032
:1013700020E088279927821B930B0895FC01809118
:101380008503843031F584899589A689B789892BAD
:101390008A2B8B2BF1F081818F708093E9009091E3
:1013A000F3008091F200892B11F480E00895909170
:1013B000E8008091E8008E778093E80095FDF5CFF6
:1013C00050DC811107C09091E8009E779093E8006F
:1013D000089582E00895FC0180918503843091F4A2
:1013E00084899589A689B789892B8A2B8B2B51F003
:1013F00081818F708093E9008091E80080FF02C0B6
:10140000CF01BCCF0895FC0180918503843019F091
:101410008FEF9FEF089584899589A689B789892BD5
:101420008A2B8B2BA9F386818F708093E9008091A2
:10143000E80082FFEDCF9091F3008091F200892BBC
:1014400079F08091F10090E03091F3002091F2006A
:10145000232B29F42091E8002B772093E8000895AE
:101460008FEF9FEFF1CFFC0184859585CCDF97FF4F
:1014700002C08EEF9FEF0895FB012EE0DB011D926D
:101480002A95E9F723E023832EEA39E03187208784
:1014900023E33AE033872287958784870895089568
:1014A000CF93DF93EC018091E80083FF13C0288184
:1014B00080918A0390918B032817190659F4809123
:1014C0008703823209F482C040F4803209F44CC0B0
:1014D0008132A9F0DF91CF9108958332D9F78091BD
:1014E00086038132B9F78091E800877F8093E80016
:1014F00099DB60918803CE01DF91CF91D0CF8091AD
:101500008603813A39F78091E800877F8093E8006D
:101510008091E80080FFFCCF8C899D89AE89BF89CE
:101520008093F100492F5A2F6B2F77274093F100BA
:10153000AD01662777274093F1008B2F9927AA27C3
:10154000BB278093F100888D8093F100898D809373
:10155000F1008A8D8093F1008091E8008E7780936E
:10156000E800DF91CF915ECB80918603813209F054
:10157000B1CF8091E800877F8093E8008091E800F8
:1015800082FF1FC03091F1002091F1009091F10095
:101590008091F1003C8B2D8B9E8B8F8B8091F10085
:1015A000888F8091F100898F8091F1008A8F8091DE
:1015B000E8008B778093E80035DBCE01DF91CF9197
:1015C0006ECF809185038111D9CF84CF809186031E
:1015D000813209F07FCF8091E800877F8093E80017
:1015E00021DB8091880390918903998B888BCE01B0
:0C15F000DF91CF910C944901F894FFCFDB
:1015FC00008000A000A800EA5ACD05008FD104009D
:10160C0013D70200E1E50400000000005ACD0500EC
:10161C00E99E0A0000001000040083100000010481
:10162C001000000182080000010000000000000012
:08163C00000000004F4B0A0002
:00000001FF
