:100000000C9434000C9451000C9451000C94510049
:100010000C9451000C9451000C9451000C9451001C
:100020000C9451000C9451000C9451000C9451000C
:100030000C9451000C9451000C9451000C945100FC
:100040000C9407010C9451000C9451000C94510035
:100050000C9451000C9451000C9451000C945100DC
:100060000C9451000C94510011241FBECFEFD8E026
:10007000DEBFCDBF11E0A0E0B1E0E0EDF4E002C0F2
:1000800005900D92AA31B107D9F721E0AAE1B1E0BC
:1000900001C01D92AC32B207E1F70E94CB010C9473
:1000A00066020C9400002A9A8CE284B92D9A089575
:1000B00098E008C02B982D98880F1C9981602D9A84
:1000C000915021F087FFF6CF2B9AF5CF08958091BC
:1000D000280190912901A0912A01B0912B0101974B
:1000E000A109B1098093280190932901A0932A01C5
:1000F000B0932B018FEF0C9458002A9A2A9886E02F
:100100000E9458002A9A2A9887EC0E9458002A9A3E
:100110002A9885E00E9458008FEF0E945800833093
:10012000D9F32A9A08951F93CF93DF93EB01182FE9
:100130002A9A2A9883E00E945800812F0E94580032
:100140008D2F0E9458008C2F0E9458001092280179
:100150001092290110922A0110922B01DF91CF9168
:100160001F910895219AE0E8F0E080818168808302
:10017000E1E8F0E08081896080830895F89414BC00
:1001800081E085BD78940895F89416BCEEE6F0E021
:1001900080818160808378940895F894EEE6F0E0A1
:1001A00080818E7F808378940895209A289808957E
:1001B000882311F0289A089528980895549A5C98F5
:1001C0000895882311F05C9A08955C980895CF9360
:1001D000DF9394E0899FE0011124FE01E45FFE4F6C
:1001E00060817181828193810E949300C050DF4FB2
:1001F00088819981AA81BB818093280190932901EC
:10020000A0932A01B0932B01DF91CF9108951F9203
:100210000F920FB60F9211242F933F934F935F933A
:100220006F937F938F939F93AF93BF93CF93DF93FE
:10023000EF93FF9380911A018F5F80931A01809151
:100240001A01823099F0FF91EF91DF91CF91BF9128
:10025000AF919F918F917F916F915F914F913F915E
:100260002F910F900FBE0F901F901895C0911B01FA
:10027000D0911C0180911B0190911C01019709F400
:1002800047C080911B0190911C01029729F1D093E6
:100290001C01C0931B018091210190912201892BA7
:1002A00049F08091210190912201019790932201C0
:1002B0008093210180911F0190912001892B49F0A9
:1002C00080911F01909120010197909320018093CC
:1002D0001F0110921A01B7CF809123019091240140
:1002E000A0912501B09126010197A109B109809340
:1002F000230190932401A0932501B0932601892B1B
:100300008A2B8B2B21F65C9A289AC1E0D0E0BFCFD4
:100310000E94670090E0909389008093880080910C
:10032000280190912901A0912A01B0912B01892BDC
:100330008A2B8B2B09F0ABCFC0912701D0E0CC0FDB
:10034000DD1FCC0FDD1FFE01E45FFE4F6081718178
:10035000828193810E949300C050DF4F88819981F0
:10036000AA81BB818093280190932901A0932A013F
:10037000B0932B0180EC94EDA1E0B0E080932301D9
:1003800090932401A0932501B09326015C982898AE
:10039000C2E0D0E07CCF0E945300219A809180007F
:1003A00081688093800080918100896080938100C2
:1003B000209A2898549A5C98F89414BC81E085BDE2
:1003C0007894F89416BC80916E00816080936E00E2
:1003D00078948BB18C608BB952982FEF81EE94E0BA
:1003E000215080409040E1F700C00000C0EADFE00B
:1003F000FF24F3948091210190912201892BF1F443
:100400004A993DC080911E01811118C080911B0145
:1004100090911C01D0932201C0932101F0921E0102
:1004200080911B0190911C01892B61F15C982898A7
:1004300090E080E090931C0180931B0180911F014C
:1004400090912001892BB1F64B9916C080911D0126
:100450008111D0CFD0932001C0931F01F0921D01D4
:10046000809127018F5F8093270190911801891354
:10047000C1CF10922701BECF10921D01BBCF1092A9
:100480001E01DCCF289A5C9A0091270110E0000F32
:10049000111F000F111FF801E45FFE4F6081718191
:1004A000828193810E949300F801E050FF4F808188
:1004B0009181A281B3818093280190932901A09317
:1004C0002A01B0932B0181E090E0B4CFF894FFCFE4
:1004D0005ACD05008FD1040013D7020000000000A0
:0A04E0005ACD0500E99E0A00030052
:00000001FF
